:020000040000fa
:080000000002040000000000f2
:020000040000fa
:040008008c03000065
:020000040000fa
:04000c00d00200001e
:020000040000fa
:0400100018030000d1
:020000040000fa
:04001400f2020000f4
:020000040000fa
:040018003a030000a7
:020000040000fa
:04001c008c03000051
:020000040000fa
:040020008c0300004d
:020000040000fa
:040024008c03000049
:020000040000fa
:040028008c03000045
:020000040000fa
:04002c008c03000041
:020000040000fa
:040030008c0300003d
:020000040000fa
:040034005c03000069
:020000040000fa
:040038008c03000035
:020000040000fa
:04003c008c03000031
:020000040000fa
:040040008c0300002d
:020000040000fa
:040044008c03000029
:020000040000fa
:040048008c03000025
:020000040000fa
:04004c008c03000021
:020000040000fa
:040050008c0300001d
:020000040000fa
:040054008c03000019
:020000040000fa
:040058008c03000015
:020000040000fa
:04005c008c03000011
:020000040000fa
:040060008c0300000d
:020000040000fa
:040064008c03000009
:020000040000fa
:040068008c03000005
:020000040000fa
:04006c008c03000001
:020000040000fa
:040070008c030000fd
:020000040000fa
:040074008c030000f9
:020000040000fa
:040078008c030000f5
:020000040000fa
:04007c008c030000f1
:020000040000fa
:040080008c030000ed
:020000040000fa
:040084008c030000e9
:020000040000fa
:040088008c030000e5
:020000040000fa
:04008c008c030000e1
:020000040000fa
:040090008c030000dd
:020000040000fa
:040094008c030000d9
:020000040000fa
:040098008c030000d5
:020000040000fa
:04009c008c030000d1
:020000040000fa
:0400a0008c030000cd
:020000040000fa
:0400a4008c030000c9
:020000040000fa
:0400a8008c030000c5
:020000040000fa
:0400ac008c030000c1
:020000040000fa
:0400b0008c030000bd
:020000040000fa
:0400b4008c030000b9
:020000040000fa
:0400b8008c030000b5
:020000040000fa
:0400bc008c030000b1
:020000040000fa
:0400c0008c030000ad
:020000040000fa
:0400c4008c030000a9
:020000040000fa
:0400c8008c030000a5
:020000040000fa
:0400cc008c030000a1
:020000040000fa
:0400d0008c0300009d
:020000040000fa
:0400d4008c03000099
:020000040000fa
:0400d8008c03000095
:020000040000fa
:0400dc008c03000091
:020000040000fa
:0400e0008c0300008d
:020000040000fa
:0400e4008c03000089
:020000040000fa
:0400e8008c03000085
:020000040000fa
:0400ec008c03000081
:020000040000fa
:0400f0008c0300007d
:020000040000fa
:0400f4008c03000079
:020000040000fa
:0400f8008c03000075
:020000040000fa
:0400fc008c03000071
:020000040000fa
:040100008c0300006c
:020000040000fa
:040104008c03000068
:020000040000fa
:040108008c03000064
:020000040000fa
:04010c008c03000060
:020000040000fa
:040110008c0300005c
:020000040000fa
:040114008c03000058
:020000040000fa
:040118008c03000054
:020000040000fa
:04011c008c03000050
:020000040000fa
:040120008c0300004c
:020000040000fa
:040124008c03000048
:020000040000fa
:040128008c03000044
:020000040000fa
:04012c008c03000040
:020000040000fa
:040130008c0300003c
:020000040000fa
:040134008c03000038
:020000040000fa
:040138008c03000034
:020000040000fa
:04013c008c03000030
:020000040000fa
:040140008c0300002c
:020000040000fa
:040144008c03000028
:020000040000fa
:040148008c03000024
:020000040000fa
:04014c008c03000020
:020000040000fa
:040150008c0300001c
:020000040000fa
:040154008c03000018
:020000040000fa
:040158008c03000014
:020000040000fa
:04015c008c03000010
:020000040000fa
:040160008c0300000c
:020000040000fa
:040164008c03000008
:020000040000fa
:040168008c03000004
:020000040000fa
:040208008c03000063
:020000040000fa
:04020c00d00200001c
:020000040000fa
:0402100018030000cf
:020000040000fa
:04021400f2020000f2
:020000040000fa
:040218003a030000a5
:020000040000fa
:04021c008c0300004f
:020000040000fa
:040220008c0300004b
:020000040000fa
:040224008c03000047
:020000040000fa
:040228008c03000043
:020000040000fa
:04022c008c0300003f
:020000040000fa
:040230008c0300003b
:020000040000fa
:040234005c03000067
:020000040000fa
:040238008c03000033
:020000040000fa
:04023c008c0300002f
:020000040000fa
:040240008c0300002b
:020000040000fa
:040244008c03000027
:020000040000fa
:040248008c03000023
:020000040000fa
:04024c008c0300001f
:020000040000fa
:040250008c0300001b
:020000040000fa
:040254008c03000017
:020000040000fa
:040258008c03000013
:020000040000fa
:04025c008c0300000f
:020000040000fa
:040260008c0300000b
:020000040000fa
:040264008c03000007
:020000040000fa
:040268008c03000003
:020000040000fa
:04026c008c030000ff
:020000040000fa
:040270008c030000fb
:020000040000fa
:040274008c030000f7
:020000040000fa
:040278008c030000f3
:020000040000fa
:04027c008c030000ef
:020000040000fa
:040280008c030000eb
:020000040000fa
:040284008c030000e7
:020000040000fa
:040288008c030000e3
:020000040000fa
:04028c008c030000df
:020000040000fa
:040290008c030000db
:020000040000fa
:040294008c030000d7
:020000040000fa
:040298008c030000d3
:020000040000fa
:04029c008c030000cf
:020000040000fa
:0402a0008c030000cb
:020000040000fa
:0402a4008c030000c7
:020000040000fa
:0402a8008c030000c3
:020000040000fa
:0402ac008c030000bf
:020000040000fa
:0402b0008c030000bb
:020000040000fa
:0402b4008c030000b7
:020000040000fa
:0402b8008c030000b3
:020000040000fa
:0402bc008c030000af
:020000040000fa
:0402c0008c030000ab
:020000040000fa
:0402c4008c030000a7
:020000040000fa
:0402c8008c030000a3
:020000040000fa
:0402cc008c0300009f
:020000040000fa
:0402d0008c0300009b
:020000040000fa
:0402d4008c03000097
:020000040000fa
:0402d8008c03000093
:020000040000fa
:0402dc008c0300008f
:020000040000fa
:0402e0008c0300008b
:020000040000fa
:0402e4008c03000087
:020000040000fa
:0402e8008c03000083
:020000040000fa
:0402ec008c0300007f
:020000040000fa
:0402f0008c0300007b
:020000040000fa
:0402f4008c03000077
:020000040000fa
:0402f8008c03000073
:020000040000fa
:0402fc008c0300006f
:020000040000fa
:040300008c0300006a
:020000040000fa
:040304008c03000066
:020000040000fa
:040308008c03000062
:020000040000fa
:04030c008c0300005e
:020000040000fa
:040310008c0300005a
:020000040000fa
:040314008c03000056
:020000040000fa
:040318008c03000052
:020000040000fa
:04031c008c0300004e
:020000040000fa
:040320008c0300004a
:020000040000fa
:040324008c03000046
:020000040000fa
:040328008c03000042
:020000040000fa
:04032c008c0300003e
:020000040000fa
:040330008c0300003a
:020000040000fa
:040334008c03000036
:020000040000fa
:040338008c03000032
:020000040000fa
:04033c008c0300002e
:020000040000fa
:040340008c0300002a
:020000040000fa
:040344008c03000026
:020000040000fa
:040348008c03000022
:020000040000fa
:04034c008c0300001e
:020000040000fa
:040350008c0300001a
:020000040000fa
:040354008c03000016
:020000040000fa
:040358008c03000012
:020000040000fa
:04035c008c0300000e
:020000040000fa
:040360008c0300000a
:020000040000fa
:040364008c03000006
:020000040000fa
:040368008c03000002
:020000040000fa
:100400002f8520000eff20000e0188000000000054
:10041000000020000000e000020032000001200087
:100420002002880014000700bd0007000000e00063
:1004300003003a00407a200001002000020037004b
:100440000000200001002000810f70000100320038
:1004500014000700000020000000e000020032004d
:10046000000002000000000028040200000000005c
:100470000040da000000fe004440a9000001200016
:100480000000e0000300320000002000a00188000e
:100490004440a800000006008a1f78008b1f7800e7
:1004a0000000060091018800800478000000eb0045
:1004b0001a003700e284440032a0b4009905ba0063
:1004c000e284440032a0b4009906ba00e2844400f9
:1004d00032a0b4000006eb00476fde00fd07b2005b
:1004e000636ce10003003a00ebff07000000eb0043
:1004f0000a003700606ce10004003a00005deb0088
:100500008b05e900fdff3e00040037006168e10053
:10051000010032000086eb000b00070019c7ba008b
:100520001905ba000e04e00003003a000a00e000da
:10053000e0ff3a0000000600fe07b2009e018800be
:100540008a047800f5ff3700395dba008b05e900b1
:100550000c003200295dba008b05e900080032006a
:100560000c00e00003003a00e284440032a0b40032
:10057000f5ff370019ddba008b05e900faff3a00f4
:100580008904e800e184440032a0b40000000600c1
:10059000000000000000000000000000000000005b
:1005a0003600f800809fbe00829fbe00849fbe0080
:1005b000869fbe000000fa008020a9000000eb002a
:1005c000e4070200000000000080fa004f03be00b4
:1005d0004f02be004f01be004f00be003600f900c2
:1005e000004006003600f800809fbe00829fbe00db
:1005f000849fbe00869fbe000000fa00ee07020046
:10060000000000008040a90010002000e407020064
:10061000000000000080fa004f03be004f02be0041
:100620004f01be004f00be003600f900004006003a
:100630003600f800809fbe00829fbe00849fbe00ef
:10064000869fbe000000fa008060a9002000200004
:10065000e4070200000000000080fa004f03be0023
:100660004f02be004f01be004f00be003600f90031
:10067000004006003600f800809fbe00829fbe004a
:10068000849fbe00869fbe000000fa008080a90003
:1006900030002000e4070200000000000080fa00a3
:1006a0004f03be004f02be004f01be004f00be0010
:1006b0003600f900004006003600f800809fbe00ba
:1006c000829fbe00849fbe00869fbe000000fa008d
:1006d000404280000000e000020032004042800002
:1006e000000001004bc8bf000040e8004be8b70025
:1006f00010c0b3004ae8b7008460a9000080fa0087
:100700004f03be004f02be004f01be004f00be00af
:100710003600f900004006000040da000000fe004c
:10072000000005008001780002003700b159780010
:100730000201e9000200e000fcff3a0000000600b0
:020000040000fa
:1007400072650000737500006c74000000640000a6
:100750000045000052410000534500000000000029
:020000040000fa
:100760000000fa000600fc0011028000f141b20016
:10077000110288000080fa00000006000000fa0064
:10078000004080001140800061004000e08048008f
:1007900000408800114088000080fa000000060038
:1007a0000000fa0000408000114080000080fa0044
:1007b000000006000800fa002007980031079800a2
:1007c000f7ff0700008fbe0000000000f4ff0700e5
:1007d0000001be002e009000be0090003e024000ce
:1007e000ae8248000400be00800f5100818f590086
:1007f000f6ff36000080fa00000006000600fa004e
:10080000881f780010079800210798000000eb006f
:10081000000f7800060037001e0090001e04400004
:100820000206020000000000004c78001e0fe800e5
:100830002e0090009e007800808f5000f6ff390057
:100840001e0090004f0478000080fa0000000600af
:100850001400fa00ca07020000000000e03b20007c
:10086000f806020000000000bdff07000040eb009a
:10087000004f780000002100010020002040880087
:100880003140880072002000013a2800808020005a
:1008900092030200000000000000eb002007980017
:1008a00009003700ae0090008080200000804000ea
:1008b0001040780020060200000000002e0090008a
:1008c0000000e80020079800ae0090008080200023
:1008d00000804000104078000004e000f1ff3a0082
:1008e000703a280030079800070037003e0090005b
:1008f0001040780020060200000000003e0090003a
:100900000000e800300798003e009000104078009a
:100910000004e000f5ff3a0001003700000000008d
:1009200010168000610060000000e000020032004c
:1009300010c0b300004f78001e4078000004e000b3
:10094000f6ff3200c442a8006f00470051002000ab
:10095000aaff070060079800903a280060079800f7
:1009600022408000334080004207980053079800df
:100970001400370050052000a10a2000ec040200fa
:10098000000000004e009000de00900056050200be
:1009900000000000604f98004e009000de009000c4
:1009a0000020b0000180b000400798005107980077
:1009b000f6040200000000001e0090000000e800a5
:1009c000100798001e009000ed0f5000e9ff340062
:0409d000d3ff37001a
:020000040000fa
:1009d4000000fe00e284200000197800010978007c
:1009e400000006000000fe000000eb008000eb00a9
:1009f400f8ff07006627ef00000006000000fe0075
:100a0400801f7800811f7800e18420000600fc002c
:100a140031007800303b880011007800303b8800ba
:100a240061e7a8000000000000000000cf0078008b
:100a34004f007800000006009201800091018800b8
:100a44009080ba001000ba009201880000000600ed
:100a540092018000910188001000ba009201880080
:100a6400000006000000fe0061e7af00feff370053
:100a7400f2032000000161001c003a0082052400fa
:100a84000f0037000000fe0061e7af00feff3700f3
:100a9400f20320000001610014003a0092052400d2
:100aa400070037000000fe0061e7af00feff3700db
:100ab400f2032000000161000c003a00a2052400aa
:100ac400023b880092018000910188000008bb006d
:100ad400020502000000000061e7af00feff3700de
:100ae400920188001000200061a7af0000002000e0
:100af400000006000000fe0061e7af00feff3700c3
:100b0400f30320008081610010003a0043002400b8
:100b1400033b8800930180009101880004022000b7
:100b24003208bb003298bb001400b100fcff3a004d
:100b3400020502000000000061e7af00feff37007d
:100b4400930188001000200061a7af00000020007e
:100b5400000006000000fe0061e7af00feff370062
:100b6400f30320008081610011003a004300240057
:100b7400033b880093018000910188000402200057
:100b8400f10f20003208bb000198bb001400b10033
:100b9400fcff3a00020502000000000061e7af001c
:100ba400feff3700930188001000200061a7af000a
:100bb4000000200000000600f20f20000000610089
:100bc4000000060002f02f0000006100f2ff2f0079
:080bd400810061000000060031
:020000040000fa
:100bdc000000fa0080002000001188002222ef00a3
:100bec00300320004011880021e2a8002342a80015
:100bfc000080fa00000006000000fa00000000006f
:100c0c0010118000610060000000e000fcff320069
:100c1c0010118000620060000000e0000100320052
:100c2c002222a90030118000004078000080fa00d8
:100c3c00000006000200fa00004f780000000000df
:100c4c001111800000202000008060000000e000f6
:100c5c00fbff3a001e80fb00201188000080fa0088
:100c6c00000006000000fa0010118000004078001f
:100c7c00614060000080fb0000f0a7000000ea006b
:100c8c000000ea004f00de00004078000080fa000f
:100c9c00000006000000fa00111180000020200066
:100cac00008060000000e00007003a001111800095
:100cbc0000402000008060000000e00002003200d4
:100ccc0010002000010037000000eb00004078000d
:100cdc000080fa00000006000000fa0010118000ed
:100cec004800de00614060000080fb0000f0a700bf
:100cfc000000ea000000ea004f00de00004078002f
:100d0c000080fa00000006000000fa0010118000bc
:100d1c000080fa00000006000000fa0021e2a800a2
:100d2c002342a8000080fa00000006000000fa0030
:100d3c0021e2a9002342a9000080fa00000006006d
:100d4c000000fa000021ef00f07c20001008880061
:100d5c000000280020088800404280000000e000cd
:100d6c0002003a00206f20001e0007008460a900da
:100d7c009460a8004a68ef000080fa0000000600aa
:100d8c000200fa00000f78009e007800110888001d
:100d9c004a68ef000080fa00000006000000fa002c
:100dac00100880000080fa00000006000200fa0023
:100dbc00000f78009e007800010888004a68ef0058
:100dcc000080fa00000006000000fa000008800015
:100ddc000080fa00000006000000fa000080fa0013
:100dec00000006000200fa00000f78009460a900d1
:100dfc009e007800414288009460a8000080fa00b0
:100e0c00000006000000fa004a68ef009460a80099
:100e1c0005e1a8000080fa00000006000000fa00be
:100e2c0005e1a9009460a9000080fa00000006000a
:100e3c000200fa00a184200091407800014f780054
:100e4c001e4078000004e000010032004a68ef0008
:100e5c001e4078000080fa00000006000000fa0036
:100e6c004bc8bf000080fb000080fa0000000600a9
:100e7c000000fa004b68ef000080fa00000006004a
:100e8c000000fa0000102300203a88004827ef00e9
:100e9c004e27ef007027ef007227ef007427ef004a
:100eac007627ef007200200080072000a1092000a7
:100ebc003374200080497800814978008249780099
:100ecc000001eb0060042000710520002374200059
:100edc008049780081497800824978000080fa00c6
:100eec00000006000000fa00c422ef0000082000f9
:100efc0060168800300d200000168800f0f72f00d7
:100f0c00401688005620ef005820ef005a20ef00c2
:100f1c006e20ef007020ef007220ef00c622ef0071
:100f2c00ce22ef00200020000027880080012f0037
:0c0f3c00102788000080fa00000006006a
:020000040000fa
:100f48004e0800000400000002000000ffffff0040
:100f5800ff0000004c080000020000000200000032
:100f6800ffff00002808000020000000000000002b
:100f7800480800000400000000000000000800000d
:0c0f880028000000000000000000000035
:020000040000fa
:100f94000000fa007807020000000000fc070200cd
:100fa400000000004607020000000000a606020040
:100fb40000000000ee050200000000000080fa00be
:100fc400000006000200fa00000f78009e0078007e
:100fd40061428800ffff37000000fa008082200091
:100fe4008007780000842000000188000080fa0057
:100ff400000006000000fa0021058000f0ff280030
:101004000080600000c0a000200588000080fa0075
:0410140000000600d2
:020000040000fa
:0200000401f009
:04000000ffff0000fe
:020000040000fa
:0200000401f009
:04000800ffff0000f6
:020000040000fa
:0200000401f009
:04000c007fff000072
:020000040000fa
:0200000401f009
:04001000bfff00002e
:020000040000fa
:0200000401f009
:040014005fff00008a
:020000040000fa
:0200000401f009
:04001800ffff0000e6
:020000040000fa
:0200000401f009
:04001c00ffff0000e2
:020000040000fa
:0200000401f009
:04002000ffff0000de
:00000001FF
