:020000040000FA
:0400000020EF00F0FD
:100008000882FACF02F0FBCF03F00E01C2AB0FEF6C
:1000180000F011EF00F01AEF00F0CAAB16EF00F095
:1000280018EF00F01AEF00F047EC00F003C0FBFFF8
:1000380002C0FAFF08921100B8EF00F0000E836EBC
:10004800000E846E000E856E7F0E886E89688A6841
:100058000F01216919691169000E2D6F000E186FC3
:10006800000E106F000E206F000E0F6F000E176F3E
:10007800000E1F6F0E6916691E690D6915691D69E5
:10008800080E2A6F12000E01CA9B06500710D8B43A
:1000980050EF00F052EF00F05FEF00F002D85FEF92
:1000A80000F00500FA6E0650FD6E0750FE6EF8501F
:1000B800FF6EFA501200120083BE65EF00F068EF81
:1000C80000F0010E69EF00F0000EFF0A016E013228
:1000D8000132835001187F0B0118836E1200490EFC
:1000E800D66EC20ED46E000ED36E0E01CA9BC28BA2
:1000F800900E046E010E056EBFEC00F0890ED56EF1
:100108001200ADEC00F0C00E046E000E056EBFECE0
:1001180000F0C4EC00F08FEF00F020EF00F0000ECC
:100128000E01E16F000EE26F000EE36F000EE46F48
:10013800000EE56F000EE66F1200620E0E01D86F1A
:10014800000EDA6F000EDC6F060EDE6F000EDD6F3C
:100158001200C6EC00F093EC00F022EC00F0A1ECE9
:1001680000F073EC00F0120008900892000EF86E90
:10017800000185EF00F004C006F005C007F012008A
:0A018800D58E1200F29A1200120048
:020000040020DA
:10000000FF0FFF0FFF0FFF0FFF0FFF0FFF0FFF0F80
:020000040030CA
:0C000000ECFFFFFF9FFFFFFFFFFFFFFF73
:00000001FF
