:020000040000fa
:080000000001040000000000f3
:020000040000fa
:0400080004020000ee
:020000040000fa
:04000c0046020000a8
:020000040000fa
:040010008602000064
:020000040000fa
:0400140024020000c2
:020000040000fa
:04001800660200007c
:020000040000fa
:04001c00a602000038
:020000040000fa
:04002000a602000034
:020000040000fa
:04002400a602000030
:020000040000fa
:04002800a60200002c
:020000040000fa
:04002c00a602000028
:020000040000fa
:04003000a602000024
:020000040000fa
:04003400a602000020
:020000040000fa
:04003800a60200001c
:020000040000fa
:04003c00a602000018
:020000040000fa
:04004000a602000014
:020000040000fa
:04004400a602000010
:020000040000fa
:04004800a60200000c
:020000040000fa
:04004c00a602000008
:020000040000fa
:04005000a602000004
:020000040000fa
:04005400a602000000
:020000040000fa
:04005800a6020000fc
:020000040000fa
:04005c00a6020000f8
:020000040000fa
:04006000a6020000f4
:020000040000fa
:04006400a6020000f0
:020000040000fa
:04006800a6020000ec
:020000040000fa
:04006c00a6020000e8
:020000040000fa
:04007000a6020000e4
:020000040000fa
:04007400a6020000e0
:020000040000fa
:04007800a6020000dc
:020000040000fa
:04007c00a6020000d8
:020000040000fa
:04008000a6020000d4
:020000040000fa
:04008400a6020000d0
:020000040000fa
:04008800a6020000cc
:020000040000fa
:04008c00a6020000c8
:020000040000fa
:04009000a6020000c4
:020000040000fa
:04009400a6020000c0
:020000040000fa
:04009800a6020000bc
:020000040000fa
:04009c00a6020000b8
:020000040000fa
:0400a000a6020000b4
:020000040000fa
:0400a400a6020000b0
:020000040000fa
:0400a800a6020000ac
:020000040000fa
:0400ac00a6020000a8
:020000040000fa
:0400b000a6020000a4
:020000040000fa
:0400b400a6020000a0
:020000040000fa
:0400b800a60200009c
:020000040000fa
:0400bc00a602000098
:020000040000fa
:0400c000a602000094
:020000040000fa
:0400c400a602000090
:020000040000fa
:0400c800a60200008c
:020000040000fa
:0400cc00a602000088
:020000040000fa
:0400d000a602000084
:020000040000fa
:0400d400a602000080
:020000040000fa
:0400d800a60200007c
:020000040000fa
:0400dc00a602000078
:020000040000fa
:0400e000a602000074
:020000040000fa
:0400e400a602000070
:020000040000fa
:0400e800a60200006c
:020000040000fa
:0400ec00a602000068
:020000040000fa
:0400f000a602000064
:020000040000fa
:0400f400a602000060
:020000040000fa
:0400f800a60200005c
:020000040000fa
:0400fc00a602000058
:020000040000fa
:04010000a602000053
:020000040000fa
:04010400a60200004f
:020000040000fa
:04010800a60200004b
:020000040000fa
:04010c00a602000047
:020000040000fa
:04011000a602000043
:020000040000fa
:04011400a60200003f
:020000040000fa
:04011800a60200003b
:020000040000fa
:04011c00a602000037
:020000040000fa
:04012000a602000033
:020000040000fa
:04012400a60200002f
:020000040000fa
:04012800a60200002b
:020000040000fa
:04012c00a602000027
:020000040000fa
:04013000a602000023
:020000040000fa
:04013400a60200001f
:020000040000fa
:04013800a60200001b
:020000040000fa
:04013c00a602000017
:020000040000fa
:04014000a602000013
:020000040000fa
:04014400a60200000f
:020000040000fa
:04014800a60200000b
:020000040000fa
:04014c00a602000007
:020000040000fa
:04015000a602000003
:020000040000fa
:04015400a6020000ff
:020000040000fa
:04015800a6020000fb
:020000040000fa
:04015c00a6020000f7
:020000040000fa
:04016000a6020000f3
:020000040000fa
:04016400a6020000ef
:020000040000fa
:04016800a6020000eb
:020000040000fa
:04016c00a6020000e7
:020000040000fa
:04017000a6020000e3
:020000040000fa
:04017400a6020000df
:020000040000fa
:04017800a6020000db
:020000040000fa
:04017c00a6020000d7
:020000040000fa
:04018000a6020000d3
:020000040000fa
:04018400a6020000cf
:020000040000fa
:04018800a6020000cb
:020000040000fa
:04018c00a6020000c7
:020000040000fa
:04019000a6020000c3
:020000040000fa
:04019400a6020000bf
:020000040000fa
:04019800a6020000bb
:020000040000fa
:04019c00a6020000b7
:020000040000fa
:0401a000a6020000b3
:020000040000fa
:0401a400a6020000af
:020000040000fa
:0401a800a6020000ab
:020000040000fa
:0401ac00a6020000a7
:020000040000fa
:0401b000a6020000a3
:020000040000fa
:0401b400a60200009f
:020000040000fa
:0401b800a60200009b
:020000040000fa
:0401bc00a602000097
:020000040000fa
:0401c000a602000093
:020000040000fa
:0401c400a60200008f
:020000040000fa
:0401c800a60200008b
:020000040000fa
:0401cc00a602000087
:020000040000fa
:0401d000a602000083
:020000040000fa
:0401d400a60200007f
:020000040000fa
:0401d800a60200007b
:020000040000fa
:0401dc00a602000077
:020000040000fa
:0401e000a602000073
:020000040000fa
:0401e400a60200006f
:020000040000fa
:0401e800a60200006b
:020000040000fa
:0401ec00a602000067
:020000040000fa
:0401f000a602000063
:020000040000fa
:0401f400a60200005f
:020000040000fa
:0401f800a60200005b
:020000040000fa
:0401fc00a602000057
:020000040000fa
:10020000af8b20000e7f24000e018800000000004c
:10021000000020000000e000020032000001200089
:100220002002880014000700ca0007000000e00058
:1002300003003a0080bf20000100200002003700c8
:100240000000200001002000810f7000010032003a
:1002500014000700000020000000e000020032004f
:100260000000020000000000d00a020000000000b0
:100270000040da000000fe004440a90020002000f9
:100280000000e00003003200100020009001880010
:100290004440a800000006008a1f78008b1f7800e9
:1002a00000000600a1028800800478000000eb0036
:1002b0001f003700e284440054a0b4009905ba003e
:1002c000e284440054a0b4009906ba00e2844400d9
:1002d00054a0b4000006eb00476fde00fd07b2003b
:1002e000ae018800636ce10003003a00eaff0700fa
:1002f0000000eb000e003700606ce10008003a00df
:10030000004deb000a05e800020039003420ec0043
:100310000af0a0008b05e900f9ff3e000400370059
:100320006168e100010032000086eb000b0007006d
:1003300019c7ba001905ba000e04e00003003a001c
:100340000a00e000dbff3a0000000600fe07b200f2
:10035000ae0288008a047800f5ff37000cd0a300b5
:10036000e20f4d001c00390089027800354dba00bb
:100370000a05e800020039003420ec000af0a00071
:100380008b05e9000f003200254dba000a05e80090
:10039000020039003420ec000af0a0008b05e900cf
:1003a000080032000c00e0000600320015cdba0053
:1003b0000a05e800020039003420ec000af0a00031
:1003c0008b05e9008984e80054a0b4000b00e0002c
:1003d000e2ff3a00000006009902ba00055d7800cd
:1003e0008b05e900f7ff3200c82ade00055d7800c2
:1003f0008b05e900f3ff32000c00e000f1ff320052
:1004000019ddba00eeff37003600f800809fbe000d
:10041000829fbe00849fbe00869fbe000000fa003f
:100420008020a9000000eb00130507000080fa00ff
:100430004f03be004f02be004f01be004f00be0082
:100440003600f900004006003600f800809fbe002c
:10045000829fbe00849fbe00869fbe000000fa00ff
:100460000a0507008040a9001000200002050700cf
:100470000080fa004f03be004f02be004f01be00d5
:100480004f00be003600f900004006003600f800bc
:10049000809fbe00829fbe00849fbe00869fbe00dc
:1004a0000000fa008060a90020002000f20407008c
:1004b0000080fa004f03be004f02be004f01be0095
:1004c0004f00be003600f900004006003600f8007c
:1004d000809fbe00829fbe00849fbe00869fbe009c
:1004e0000000fa008080a90030002000e20407002c
:1004f0000080fa004f03be004f02be004f01be0055
:100500004f00be003600f900004006003600f8003b
:10051000809fbe00829fbe00849fbe00869fbe005b
:100520000000fa008600a90070002000d204070035
:100530000080fa004f03be004f02be004f01be0014
:100540004f00be003600f900004006000040da000f
:080550000000fe0000000500a0
:020000040000fa
:100558000000fa00100020002026880000802000fb
:10056800402688000080eb005026880020002000ec
:1005780060268800ce24ef00d024ef00d224ef00bc
:10058800d424ef008880a900d624ef00d824ef00f7
:10059800da24ef00dc24ef00de24ef0089c0a90094
:1005a800e024ef00e224ef00e424ef00e624ef006b
:1005b800e824ef008b00a900ea24ef00ec24ef0008
:1005c800ee24ef00f024ef00f224ef008c80a90065
:1005d800f424ef00f624ef00f824ef00fa24ef00eb
:1005e800fc24ef008dc0a900fe24ef000025ef00d9
:1005f8000225ef000425ef000625ef008fa0a900d3
:100608000080fa00000006000000fa000080fa00ee
:10061800000006000000fa0040048000700060003e
:100628000000e00002003200f7ff07008880a90000
:100638000080fa00000006000000fa000080fa00be
:10064800000006000000fa004104800000002400b9
:10065800008060000000e00002003200f6ff0700a2
:1006680089c0a9000080fa00000006000000fa0016
:100678000080fa00000006000000fa005104800023
:1006880000102000008060000000e000020032003e
:10069800f6ff07008b00a9000080fa0000000600a2
:1006a8000000fa000080fa00000006000000fa00ce
:1006b80060048000700060000000e000020032006a
:1006c800f7ff07008c80a9000080fa0000000600f0
:1006d8000000fa000080fa00000006000000fa009e
:1006e8006104800000002400008060000000e00039
:1006f80002003200f6ff07008dc0a9000080fa0052
:10070800000006000000fa000080fa000000060061
:100718000000fa00710480000000220000806000e0
:100728000000e00002003200f6ff07008fa0a900d9
:100738000080fa00000006000200fa00000f7800ae
:100748001e007800e20f500012003200e20f500045
:1007580005003e000000e0000a003200e10f5000f2
:100768000a00320013003700e40f50000d00320079
:10077800e40f500009003900e50f50000b0032006b
:100788000c003700cc04a8000a003700d604a800e3
:1007980008003700e004a80006003700ea04a800b3
:1007a80004003700f404a80002003700fe04a80083
:1007b800000000000080fa00000006000200fa00b5
:1007c800000f78001e007800e20f5000120032007f
:1007d800e20f500005003e000000e0000a00320071
:1007e800e10f50000a00320013003700e40f5000f8
:1007f8000d003200e40f500009003900e50f5000e9
:100808000b0032000c003700cc04a9000a003700a6
:10081800d604a90008003700e004a9000600370044
:10082800ea04a90004003700f404a9000200370014
:10083800fe04a900000000000080fa000000060085
:100848000400fa00000f7800110798001e007800d5
:10085800e20f500014003200e20f500005003e0085
:100868000000e0000a003200e10f50000b003200e7
:1008780019003700e40f500011003200e40f500057
:100888000c003900e50f500010003200120037004c
:100898009e009000a12688000f0037009e0090005f
:1008a800f12688000c0037009e0090004127880040
:1008b800090037009e009000912788000600370045
:1008c8009e009000e1278800030037009e009000fa
:1008d80031288800000000000080fa0000000600af
:1008e8000200fa00000f78001e007800e20f5000a6
:1008f80012003200e20f500005003e000000e00048
:100908000a003200e10f50000a00320013003700dd
:10091800e40f50000d003200e40f500009003900c8
:10092800e50f50000b0032000c003700a0268000b5
:100938000b003700f02680000900370040278000b0
:10094800070037009027800005003700e027800067
:100958000300370030288000010037000000eb005a
:100968000080fa00000006000200fa00000f78007c
:100978001e007800e20f500012003200e20f500013
:1009880005003e000000e0000a003200e10f5000c0
:100998000a00320013003700e40f50000d00320047
:1009a800e40f500009003900e50f50000b00320039
:1009b8000c003700cd04a8000a003700d704a800af
:1009c80008003700e104a80006003700eb04a8007f
:1009d80004003700f504a80002003700ff04a8004f
:1009e800000000000080fa00000006000400fa0081
:1009f800000f7800110798001e007800e20f5000e1
:100a080014003200e20f500005003e000000e00034
:100a18000a003200e10f50000b00320019003700c5
:100a2800e40f500011003200e40f50000c003900b0
:100a3800e50f500010003200120037009e009000b1
:100a4800812688000f0037009e009000d12688007c
:100a58000c0037009e00900021278800090037000d
:100a68009e00900071278800060037009e009000c5
:100a7800c1278800030037009e00900011288800d5
:100a8800000000000080fa00000006000400fa00e0
:100a9800000f7800110798001e007800e20f500040
:100aa80014003200e20f500005003e000000e00094
:100ab8000a003200e10f50000b0032001900370025
:100ac800e40f500011003200e40f50000c00390010
:100ad800e50f500010003200120037009e00900011
:100ae800912688000f0037009e009000e1268800bc
:100af8000c0037009e00900031278800090037005d
:100b08009e00900081278800060037009e00900014
:100b1800d1278800030037009e0090002128880014
:100b2800000000000080fa00000006000200fa0041
:100b3800000f78001e007800e20f500022003200fb
:100b4800e20f500005003e000000e0000a003200fd
:100b5800e10f50001200320043003700e40f50004c
:100b68002d003200e40f500021003900e50f50003d
:100b7800330032003c003700602680004800de0069
:100b8800614060000080fb0000f0a7000000ea0060
:100b98000000ea004f00de00004078003300370014
:100ba800b02680004800de00614060000080fb0045
:100bb80000f0a7000000ea000000ea004f00de0095
:100bc8000040780029003700002780004800de0038
:100bd800614060000080fb0000f0a7000000ea0010
:100be8000000ea004f00de00004078001f003700d8
:100bf800502780004800de00614060000080fb0054
:100c080000f0a7000000ea000000ea004f00de0044
:100c18000040780015003700a02780004800de005b
:100c2800614060000080fb0000f0a7000000ea00bf
:100c38000000ea004f00de00004078000b0037009b
:100c4800f02780004800de00614060000080fb0063
:100c580000f0a7000000ea000000ea004f00de00f4
:100c680000407800010037000040eb000080fa00e7
:100c7800000006000200fa00000f78001e0078004d
:100c8800e20f500022003200e20f500005003e0043
:100c98000000e0000a003200e10f500012003200ac
:100ca80043003700e40f50002d003200e40f5000dd
:100cb80021003900e50f5000330032003c003700b6
:100cc800702680004f00de00004078000080fb00a6
:100cd80000f0a7000000ea000000ea004f00de0074
:100ce8000040780033003700c02680004f00de0047
:100cf800004078000080fb0000f0a7000000ea0038
:100d08000000ea004f00de000040780029003700ac
:100d1800102780004f00de00004078000080fb00b4
:100d280000f0a7000000ea000000ea004f00de0023
:100d3800004078001f003700602780004f00de0069
:100d4800004078000080fb0000f0a7000000ea00e7
:100d58000000ea004f00de00004078001500370070
:100d6800b02780004f00de00004078000080fb00c4
:100d780000f0a7000000ea000000ea004f00de00d3
:100d8800004078000b003700002880004f00de008c
:100d9800004078000080fb0000f0a7000000ea0097
:100da8000000ea004f00de00004078000100370034
:100db8000040eb000080fa00000006000200fa0084
:100dc800000f78001e007800e20f50002200320069
:100dd800e20f500005003e000000e0000a0032006b
:100de800e10f50001200320043003700e40f5000ba
:100df8002d003200e40f500021003900e50f5000ab
:100e0800330032003c003700702680004700de00c7
:100e1800614060000080fb0000f0a7000000ea00cd
:100e28000000ea004f00de00004078003300370081
:100e3800c02680004700de00614060000080fb00a3
:100e480000f0a7000000ea000000ea004f00de0002
:100e58000040780029003700102780004700de0096
:100e6800614060000080fb0000f0a7000000ea007d
:100e78000000ea004f00de00004078001f00370045
:100e8800602780004700de00614060000080fb00b2
:100e980000f0a7000000ea000000ea004f00de00b2
:100ea8000040780015003700b02780004700de00ba
:100eb800614060000080fb0000f0a7000000ea002d
:100ec8000000ea004f00de00004078000b00370009
:100ed800002880004700de00614060000080fb00c1
:100ee80000f0a7000000ea000000ea004f00de0062
:100ef80000407800010037000040eb000080fa0055
:100f0800000006000200fa00000f78001e007800ba
:100f1800e20f500022003200e20f500005003e00b0
:100f28000000e0000a003200e10f50001200320019
:100f380043003700e40f50002d003200e40f50004a
:100f480021003900e50f5000330032003c00370023
:100f5800702680004600de00614060000080fb00d3
:100f680000f0a7000000ea000000ea004f00de00e1
:100f78000040780033003700c02680004600de00bd
:100f8800614060000080fb0000f0a7000000ea005c
:100f98000000ea004f00de0000407800290037001a
:100fa800102780004600de00614060000080fb00e2
:100fb80000f0a7000000ea000000ea004f00de0091
:100fc800004078001f003700602780004600de00e0
:100fd800614060000080fb0000f0a7000000ea000c
:100fe8000000ea004f00de000040780015003700de
:100ff800b02780004600de00614060000080fb00f2
:1010080000f0a7000000ea000000ea004f00de0040
:10101800004078000b003700002880004600de0002
:10102800614060000080fb0000f0a7000000ea00bb
:101038000000ea004f00de000040780001003700a1
:101048000040eb000080fa00000006000200fa00f1
:10105800000f78001e007800e20f500022003200d6
:10106800e20f500005003e000000e0000a003200d8
:10107800e10f50001200320043003700e40f500027
:101088002d003200e40f500021003900e50f500018
:10109800330032003c003700702680004500de0037
:1010a800614060000080fb0000f0a7000000ea003b
:1010b8000000ea004f00de000040780033003700ef
:1010c800c02680004500de00614060000080fb0013
:1010d80000f0a7000000ea000000ea004f00de0070
:1010e8000040780029003700102780004500de0006
:1010f800614060000080fb0000f0a7000000ea00eb
:101108000000ea004f00de00004078001f003700b2
:10111800602780004500de00614060000080fb0021
:1011280000f0a7000000ea000000ea004f00de001f
:101138000040780015003700b02780004500de0029
:10114800614060000080fb0000f0a7000000ea009a
:101158000000ea004f00de00004078000b00370076
:10116800002880004500de00614060000080fb0030
:1011780000f0a7000000ea000000ea004f00de00cf
:1011880000407800010037000040eb000080fa00c2
:10119800000006000200fa00000f78001e00780028
:1011a800e20f500022003200e20f500005003e001e
:1011b8000000e0000a003200e10f50001200320087
:1011c80043003700e40f50002d003200e40f5000b8
:1011d80021003900e50f5000330032003c00370091
:1011e800702680004300de00614060000080fb0044
:1011f80000f0a7000000ea000000ea004f00de004f
:101208000040780033003700c02680004300de002d
:10121800614060000080fb0000f0a7000000ea00c9
:101228000000ea004f00de00004078002900370087
:10123800102780004300de00614060000080fb0052
:1012480000f0a7000000ea000000ea004f00de00fe
:10125800004078001f003700602780004300de0050
:10126800614060000080fb0000f0a7000000ea0079
:101278000000ea004f00de0000407800150037004b
:10128800b02780004300de00614060000080fb0062
:1012980000f0a7000000ea000000ea004f00de00ae
:1012a800004078000b003700002880004300de0073
:1012b800614060000080fb0000f0a7000000ea0029
:1012c8000000ea004f00de0000407800010037000f
:1012d8000040eb000080fa00000006000200fa005f
:1012e800000f78001e007800e20f50002200320044
:1012f800e20f500005003e000000e0000a00320046
:10130800e10f50001200320043003700e40f500094
:101318002d003200e40f500021003900e50f500085
:10132800330032003c003700702680004400de00a5
:10133800614060000080fb0000f0a7000000ea00a8
:101348000000ea004f00de0000407800330037005c
:10135800c02680004400de00614060000080fb0081
:1013680000f0a7000000ea000000ea004f00de00dd
:101378000040780029003700102780004400de0074
:10138800614060000080fb0000f0a7000000ea0058
:101398000000ea004f00de00004078001f00370020
:1013a800602780004400de00614060000080fb0090
:1013b80000f0a7000000ea000000ea004f00de008d
:1013c8000040780015003700b02780004400de0098
:1013d800614060000080fb0000f0a7000000ea0008
:1013e8000000ea004f00de00004078000b003700e4
:1013f800002880004400de00614060000080fb009f
:1014080000f0a7000000ea000000ea004f00de003c
:1014180000407800010037000040eb000080fa002f
:10142800000006000000fa0080002000c01c8800b0
:101438009a23ef0070062000001d8800a223ef0009
:1014480099e3a8009b43a8000080fa00000006006a
:101458000000fa0000000000d01c8000610060005d
:101468000000e000fcff3200d01c80006200600039
:101478000000e000010032009a23a900f01c80005f
:10148800004078000080fa00000006000200fa0020
:10149800004f780000000000d11c800000202000d0
:1014a800008060000000e000fbff3a001e80fb00a7
:1014b800e01c88000080fa00000006000000fa0026
:1014c800d01c800000407800614060000080fb0074
:1014d80000f0a7000000ea000000ea004f00de006c
:1014e800004078000080fa00000006000000fa00c2
:1014f800d11c800000202000008060000000e00077
:1015080007003a00d11c80000040200000806000e5
:101518000000e00002003200100020000100370047
:101528000000eb00004078000080fa000000060090
:101538000000fa00d01c80004800de006140600016
:101548000080fb0000f0a7000000ea000000ea00ad
:101558004f00de00004078000080fa00000006001e
:101568000000fa00d01c80000080fa00000006008d
:101578000000fa0099e3a8009b43a8000080fa0045
:10158800000006000000fa0099e3a9009b43a900a7
:101598000080fa00000006000000fa00c000070002
:1015a8000228ef000700370010408000418020002b
:1015b80012c0b30082707800104080000000e8007c
:1015c800104088001140800030062000808f5000b5
:1015d800f5ff3400c5e4a800c404a80000002500f5
:1015e8005026880000852000402688004080200082
:1015f80080268800c03920009026880040002000fe
:10160800a0268800cc24ef0061268000f0f32f008c
:10161800008060006026880061268000f0fc2f00b2
:10162800008060000040a0006026880061268000dd
:1016380030ff2f00008060000030a0006026880086
:1016480071268000f00f28008080600000102200c2
:101658000100700070268800cc04a8008880a900ca
:101668000000000040048000700060000000e000fe
:10167800fcff32008880a900ffff37000000fa0055
:101688006626ef007a26ef0080012000703488007b
:1016980070f92700103388000080eb00b033880011
:1016a800703e2000503488007426ef008826ef0032
:1016b8009c26ef007226ef008626ef009a26ef00a0
:1016c8006826ef007c26ef009026ef0070002000cf
:1016d80050338800c0202f00f033880070002000ad
:1016e8009034880001088000f00b20000081600021
:1016f8006004200071052000031020008049780054
:101708008149780082497800413f800000f82f0025
:10171800008060003000b300403f8800a13d800099
:1017280000fc2f0000806000f001b300a03d88009d
:1017380000088000000178000260a000600420001a
:101748007105200003102000804978008149780045
:10175800824978000080fa00000006000000fa00c4
:1017680000002300100888000621ef006821ef0020
:101778006a21ef000821ef0000702000500888005f
:101788000c21ef000e21ef007821ef007a21ef0005
:101798007c21ef007e21ef008021ef008221ef0005
:1017a8008421ef008621ef000001eb008007200074
:1017b800a109200013102000804978008149780091
:1017c800824978000001eb006004200071052000c8
:1017d8000310200080497800814978008249780008
:0817e8000080fa000000060079
:020000040000fa
:1017f0009a0800002000000080000000000800009f
:101800000200000082000000ffff000068080000e6
:10181000320000008200000041424300444546007f
:10182000474849004a4b4c004d4e4f000000000015
:1018300000000000000000000000000000000000a8
:101840000000000000000000000000000000000098
:10185000000000000000000000000000040800007c
:101860006400000080000000020800000200000088
:081870008000000000000000f0
:020000040000fa
:101878000200fa00000f78009e00780001408800fe
:10188800ffff37000000fa00a089200080077800d9
:10189800208b2000000188000080fa00000006006c
:1018a8000000fa0075ff0700acff070004000700fe
:1018b80027fb0700dbfe07000080fa000000060097
:0c18c8000000fa000080fa00000006009a
:020000040000fa
:020000040005f5
:045e0000ffff0000a0
:020000040000fa
:020000040005f5
:045e2000ffffff0081
:020000040000fa
:020000040005f5
:045e300078ffff00f8
:020000040000fa
:020000040005f5
:045e3800b7ffff00b1
:020000040000fa
:020000040005f5
:045e40009fffff00c1
:020000040000fa
:020000040005f5
:045e4800ffffff0059
:020000040000fa
:020000040005f5
:045e5000dfffff0071
:020000040000fa
:020000040005f5
:045e5800ffffff0049
:00000001FF
