:020000040000FA
:040000000EEF00F00F
:0400080004EF20F0F1
:100018000CEF20F041EF09F046EF00F0000EEB6F17
:10002800400EEC6F000EED6F000EEE6FFF0EE76FE7
:10003800FF0EE86F000EE96F000EEA6F400EEF6FDB
:10004800000EF06F000EF16F000EF26F5CEF00F023
:10005800000EEB6F000EEC6F000EED6F000EEE6FF2
:10006800000EE76F040EE86F000EE96F000EEA6FEE
:10007800400EEF6F000EF06F000EF16F000EF26F82
:100088005CEF00F000016051E36FE46BE451000A9B
:10009800D8B451EF00F09AEF01F0E351020AD8B456
:1000A80012EF00F0070AD8B42CEF00F09AEF01F035
:1000B800EB51615DEC516259ED516359EE51645950
:1000C800D8A069EF00F06BEF00F07AEF00F0615113
:1000D800E75D6251E8596351E9596451EA59D8B06A
:1000E80078EF00F07AEF00F086EF00F0FC0E85EC78
:1000F8000AF0AF0E0001DB6F3F0EDC6F49EC0AF02F
:100108009AEF01F06551D8B48CEF00F08EEF00F053
:100118009AEF00F0FD0E85EC0AF0E00E0001DB6FAF
:100128003F0EDC6F49EC0AF09AEF01F0400E66656D
:10013800A0EF00F0A2EF00F0A7EF00F0FB0E85ECB7
:100148000AF09AEF01F06651D8B4ADEF00F0AFEFC6
:1001580000F0F3EF00F0690E016E000E026E66C04B
:1001680003F0F2EC07F00001A951011809E1AA51C6
:100178000218D8B4C2EF00F0C4EF00F0E8EF00F0C6
:10018800F80E85EC0AF01D0E0001DB6F3F0EDC6FE8
:10019800690E016E000E026E66C003F0F2EC07F005
:1001A80001C0DDF002C0DEF049EC0AF0780E000173
:1001B800DB6F3F0EDC6F49EC0AF0000E0001AA6FFE
:1001C800000EA96F9AEF01F0C00EDB6F3F0EDC6FD7
:1001D80049EC0AF0000E0001AA6F000EA96F040E88
:1001E800AB19D8B4FAEF00F0FCEF00F008EF01F01B
:1001F800FA0E85EC0AF0630E0001DB6F3F0EDC6F30
:1002080049EC0AF09AEF01F0F00EDB6F3F0EDC6F5D
:1002180049EC0AF084EF01F061C006F062C007F013
:1002280063C008F064C009F0690E0A6E000E0B6E18
:1002380080EC06F00009D8A424EF01F026EF01F0C5
:100248003BEF01F04D0E0001DB6F3F0EDC6F49EC18
:100258000AF0000E0001616F000E626F000E636FFE
:10026800000E646FEE0E85EC0AF09AEF01F0D00EE6
:100278000001DB6F3F0EDC6F49EC0AF09AEF01F0EA
:10028800000EF86F000EF76F68EF01F061C0E3F041
:1002980062C0E4F063C0E5F064C0E6F0612B000ED4
:1002A800622363236423E3C001F0E4C002F0690E13
:1002B800F725D96E000EF821DA6EDF50036E1CECBC
:1002C80009F00001F74BF82B6651E36FE46BE3513B
:1002D800F75DF851800AE56FE451800AE559D8A026
:1002E80078EF01F07AEF01F04AEF01F0FF0E85ECAC
:1002F8000AF09AEF01F0F90E85EC0AF09AEF01F096
:1003080000016051E36FE46BE451000AD8B48FEF49
:1003180001F07FEF01F0E351020AD8B410EF01F0C9
:10032800070AD8B444EF01F07FEF01F01200000192
:10033800B5BFA1EF01F0A3EF01F0A4EF01F0B69370
:10034800B5BFB1EF01F0B55106E1B405D8B0AFEFD4
:1003580001F0B1EF01F0B7EF01F0000E366E010EBB
:10036800356EBBEF01F0B4C035F0B5C036F0B2C0A1
:1003780037F0B3C038F0B6A9C4EF01F0C6EF01F00A
:10038800CAEF01F0FE0E3726FF0E382220C039F0E2
:1003980021C03AF022C03BF023C03CF024C03DF01D
:1003A80025C03EF026C03FF027C040F0000E426E48
:1003B8001F0E416E000EDA6F95EF02F04106D8A0CD
:1003C80042060F0E3914436E446A44BEF5EF01F03D
:1003D800445009E10A0E435CD8A0F5EF01F0F7EFAD
:1003E80001F0FFEF01F0570E4324436E000E442046
:1003F800446E05EF02F0300E4324436E000E442095
:10040800446EBF0E296EFF0E2A6E28502B6E2C6A82
:1004180029502B262A502C222C500AE11A0E2B5C2C
:10042800D8A019EF02F01CEF02F0010E1DEF02F048
:10043800000E316E326A31503210D8B426EF02F015
:1004480028EF02F058EF02F09F0E296EFF0E2A6E79
:10045800200E43102B6E000E44102C6E29502B26B4
:100468002A502C222C500AE11A0E2B5CD8A03FEF00
:1004780002F042EF02F0010E43EF02F0000E336E7D
:10048800346A33503410D8B44CEF02F04EEF02F017
:1004980058EF02F043C007F044C008F09AEC08F0A7
:1004A80007C043F008C044F0BB0E4124D96E000ECB
:1004B8004220DA6E43C0DFFF3506D8A0360637067D
:1004C800D8A0380639C029F03AC02AF03BC02BF032
:1004D8003CC02CF03DC02DF03EC02EF03FC02FF0A8
:1004E80040C030F0050E82EF02F0D89030322F3243
:1004F8002E322D322C322B322A322932E82E79EF45
:1005080002F029C039F02AC03AF02BC03BF02CC0C9
:100518003CF02DC03DF02EC03EF02FC03FF030C063
:1005280040F042BEA1EF02F0425009E1020E415CE8
:10053800D8A0A1EF02F0A3EF02F0D4EF02F03950F7
:100548003A103B103C103D103E103F104010D8A40C
:10055800B0EF02F0B2EF02F0E2EF01F036BEBFEF0B
:1005680002F0365006E13504D8B0BDEF02F0BFEF17
:1005780002F0E2EF01F038BECAEF02F0385008E1AD
:100588003704D8A0CAEF02F0CCEF02F0D4EF02F0A3
:100598000001B6B3D2EF02F0D4EF02F0E2EF01F0BF
:1005A8000001B6A9DAEF02F0DCEF02F0F2EF02F098
:1005B8004106D8A04206BB0E4124D96E000E422047
:1005C800DA6E28C0DFFF4106D8A04206BB0E4124E0
:1005D800D96E000E4220DA6E300EDF6E1EC013F0A8
:1005E8001FC014F0BB0E4124156E000E4220166E7B
:1005F80037C017F038C018F0E8EC06F013C01EF04A
:1006080014C01FF0120039EF03F0000EEC6F400E1B
:10061800ED6F000EEE6FFF0EE96FFF0EEA6F000E32
:10062800EB6F400EEF6F53EF03F0000EEC6F000E10
:10063800ED6F300EEE6F0D0EE96F000EEA6F300EA3
:10064800EB6F0E0EEF6F53EF03F0000EEC6F000E22
:10065800ED6F000EEE6F000EE96F040EEA6F000EEC
:10066800EB6F400EEF6F53EF03F000016051E36F43
:10067800E46BE451000AD8B444EF03F0F5EF03F05B
:10068800E351010AD8B409EF03F0050AD8B429EFF9
:1006980003F0020AD8B419EF03F0F5EF03F0EC51B8
:1006A800E36FED51E46FEE51E56FE66BE351615D89
:1006B800E4516259E5516359E6516459D8A067EF8E
:1006C80003F069EF03F07FEF03F0E951E36FEA51BC
:1006D800E46FEB51E56FE66B6151E35D6251E459FC
:1006E8006351E5596451E659D8B07DEF03F07FEFC7
:1006F80003F084EF03F0FC0E85EC0AF0F5EF03F04D
:100708006551D8B48AEF03F08CEF03F091EF03F052
:10071800FD0E85EC0AF0F5EF03F06651EF5DD8B0F9
:1007280098EF03F09AEF03F09FEF03F0FB0E85ECD0
:100738000AF0F5EF03F0040EAB19D8B4A6EF03F0F6
:10074800A8EF03F0ADEF03F0FA0E85EC0AF0F5EF31
:1007580003F08C0EDB6F3F0EDC6F49EC0AF0000EE5
:100768000001E86F000EE76FDAEF03F0F90E85EC91
:100778000AF0F5EF03F06051E36FE46BE451000A0F
:10078800D8B4C9EF03F0BAEF03F0E351010AD8B4C3
:10079800D8EF03F0050AD8B4D8EF03F0020AD8B4AA
:1007A800D8EF03F0BAEF03F0E74BE82B6651E36F9D
:1007B800E46BE351E75DE851800AE56FE451800A94
:1007C800E559D8A0EAEF03F0ECEF03F0BFEF03F030
:1007D8009E0EDB6F3F0EDC6F49EC0AF0EE0E85ECE7
:1007E8000AF0120047C0D9FF48C0DAFFDECFF6FF93
:1007F800DDCFF7FF0800F550250AD8A406EF04F06E
:1008080008EF04F0C2EF04F047C0D9FF48C0DAFF90
:10081800DE2A000EDD22000E0001B36F000EB26F5B
:10082800B2C0B6F0B3C0B7F0B469B56947C0D9FF74
:1008380048C0DAFFDECFF6FFDDCFF7FF0800F5503E
:10084800780AD8B42AEF04F02CEF04F03EEF04F055
:1008580047C0D9FF48C0DAFFDECFF6FFDDCFF7FF8C
:100868000800F550580AD8A43CEF04F03EEF04F015
:100878008CEF04F047C0D9FF48C0DAFFDECFF6FF9F
:10088800DDCFF7FF0800F5CF57F047C0D9FF48C0C4
:10089800DAFFDE2A000EDD2249C0D9FF4AC0DAFF9E
:1008A800DFCF4BF0020EDE26DFCF4CF0000EDD224C
:1008B8004BC0D9FF4CC0DAFFDECF4DF0DDCF4EF094
:1008C8004DC04FF04EC050F0516A526A536A546A94
:1008D800556A566A45C01EF046C01FF04FC020F04A
:1008E80050C021F051C022F052C023F053C024F070
:1008F80054C025F055C026F056C027F057C028F040
:100908009BEC01F01EC045F01FC046F0DDEF04F07F
:1009180047C0D9FF48C0DAFFDECFF6FFDDCFF7FFCB
:100928000800F550250AD8A49CEF04F09EEF04F0C7
:10093800B5EF04F047C0D9FF48C0DAFFDE2A000E41
:10094800DD22000E046E250E036E45C005F046C07C
:1009580006F0A7EC07F0000E466E010E456EDDEFBF
:1009680004F047C0D9FF48C0DAFFDE2A000EDD22B6
:10097800000E466E000E456EDDEF04F047C0D9FF4D
:1009880048C0DAFFDECFF6FFDDCFF7FF0800F550ED
:10099800036E046A45C005F046C006F0A7EC07F0F0
:1009A80047C0D9FF48C0DAFFDE2A000EDD22AFEFCC
:1009B80004F01200000E0001616F000E626F000E5D
:1009C800636F000E646F33EC0AF00001606F000E75
:1009D800086E000E076E07C001F0D8900136D89057
:1009E8000136D890013633EC0AF0026E02C003F0EB
:1009F800046A056A066A012A07EF05F0D8900336EB
:100A0800043605360636012E02EF05F003500001C4
:100A18006113045062130550631306506413074AA8
:100A2800082A08BE21EF05F0085009E1040E075C0A
:100A3800D8A021EF05F023EF05F0EFEF04F033EC39
:100A48000AF00001656F33EC0AF00001666F020ED0
:100A58006019D8A432EF05F034EF05F09BEF05F0EC
:100A6800000EAC6F000EAD6F000EAE6F000EAF6FD4
:100A78004EEF05F0690EAC25D96E000EAD21DA6E89
:100A880033EC0AF0DF6E010E0001AC27000EAD2337
:100A9800AE23AF2366C001F0026A036A046A0150FC
:100AA800AC5D0250AD590350AE590450AF59D8A0AF
:100AB80060EF05F062EF05F03EEF05F0000EAC6F59
:100AC800000EAD6F000EAE6F000EAF6FAF51AE11DE
:100AD800AD1109E1020EAC5DD8A075EF05F077EF16
:100AE80005F079EF05F09BEF05F0ACC001F0D89068
:100AF8000136D8900136D890013633EC0AF0026EF0
:100B0800036A012A8BEF05F0D89002360336012ECE
:100B180088EF05F002500001A9130350AA13010E33
:100B2800AC27000EAD23AE23AF236AEF05F033ECFC
:100B38000AF00001AB6F120091EC0AF0020E0001FE
:100B4800FC6F040EFB6FBA0EE82EFED7FB2FFCD706
:100B5800FC2FFAD700F0010E0001B96F8DA0B7EF96
:100B680005F0B9EF05F0C2EF05F0350EDB6F3F0E6B
:100B7800DC6F49EC0AF0000E0001B96FB905D8A482
:100B8800C8EF05F0CAEF05F0E2EF05F0000E026EBF
:100B9800100E016E6BEC0AF0AA0AD8B4D6EF05F075
:100BA800D8EF05F0E2EF05F0950E0001DB6F3E0E81
:100BB800DC6F49EC0AF0000E0001B96F0001B95171
:100BC800D8A4E9EF05F0EBEF05F0F7EF05F091ECAD
:100BD8000AF011EC06F00009D8A4F5EF05F0F7EFDC
:100BE80005F0EDEF05F0040E0001DB6F3F0EDC6F42
:100BF80049EC0AF01F0E0001FC6F710EFB6F1E0E10
:100C0800E82EFED7FB2FFCD7FC2FFAD700F000EF19
:100C180020F00DEF06F00EEF00F033EC0AF00F0AAB
:100C2800D8A419EF06F01BEF06F011EF06F020EE3E
:100C380067F002D82AEF06F00500FA6EDE50FD6E66
:100C4800DE50FE6EF850FF6EFA5012004CEF06F0C0
:100C580036EC08F07EEF06F04BEC07F07EEF06F07E
:100C680010EC00F07EEF06F007EC03F07EEF06F0E4
:100C7800000E026E100E016EAA0E036E1CEC09F037
:100C8800000E7FEF06F0FE0E85EC0AF07EEF06F010
:100C980000016051F96FFA6BFA51000AD8B457EFA6
:100CA80006F047EF06F0F951000AD8B42CEF06F029
:100CB800010AD8B438EF06F0030AD8B434EF06F0C6
:100CC800010AD8B430EF06F0070AD8B438EF06F0B6
:100CD800010AD8B434EF06F0030AD8B438EF06F0A6
:100CE800010AD8B47EEF06F00F0AD8B43CEF06F03C
:100CF80047EF06F0010E1200C00E06140C6EFF0E30
:100D080007140D6E000E08140E6E000E09140F6EF7
:100D1800000EF2BE010E106E0C5006180FE10D50B9
:100D280007180CE10E50081809E10F500918D8B43B
:100D3800A0EF06F0A2EF06F0A5EF06F0FF0EE7EF32
:100D480006F006C001F007C002F008C003F009C0B1
:100D580004F0FCEC09F008C0F8FF07C0F7FF06C074
:100D6800F6FF000E116E11500A24D96E000E0B20EA
:100D7800DA6EDF50F56E3F0E1118D8A4C6EF06F0F4
:100D8800C8EF06F0CBEF06F00C00CCEF06F00D0034
:100D9800112A3F0E1164D3EF06F0D5EF06F0B7EF36
:100DA80006F081503F0B8009816E8184F29E550EBA
:100DB800826EAA0E826E8182819410B002D0F29E59
:100DC80001D0F28E000E12000001B6A1EEEF06F07F
:100DD800F0EF06F0FAEF06F015C00CF016C00DF0B3
:100DE80013C00EF014C00FF064EC09F018BEFFEF4A
:100DF80006F001EF07F007EF07F017C01CF018C066
:100E08001DF00BEF07F0000E1D6E000E1C6E000E9D
:100E18001B6E000E1A6E1DEF07F0000E046E200EFA
:100E2800036E13C005F014C006F0A7EC07F01A4AC9
:100E38001B2A1C501A5C1B50800A196E1D50800A10
:100E48001958D8A02AEF07F02CEF07F011EF07F098
:100E58000001B6B132EF07F034EF07F03EEF07F0CC
:100E680015C00CF016C00DF013C00EF014C00FF032
:100E780064EC09F015C001F016C002F018EC0AF095
:100E88001C500124136E1D500220146E1200040E13
:100E98000001AB19D8B453EF07F055EF07F05DEF39
:100EA80007F0EB0EDB6F3E0EDC6F49EC0AF0A6EFA5
:100EB80007F0000E026E100E016E550E036E1CEC4C
:100EC80009F0000E0001E36F400EE46F000EE56FBD
:100ED800000EE66F000EAC6F000EAD6F000EAE6F29
:100EE800000EAF6FAF51AE1109E1030EAD5DD8A092
:100EF80080EF07F082EF07F084EF07F09DEF07F02F
:100F0800E3C001F0E4C002F0E5C003F0E6C004F07D
:100F1800FCEC09F0400E0001E327000EE423E52372
:100F2800E623010EAC27000EAD23AE23AF2376EFE8
:100F380007F0750EDB6F3E0EDC6F49EC0AF0EE0E23
:100F480085EC0AF0120005500610D8B4AEEF07F091
:100F5800B0EF07F0B9EF07F005500610D8A4B7EFC7
:100F680007F0B9EF07F0BEEF07F00350A9EC0AF05D
:100F7800F1EF07F020EE04F00550D9260650DA22EA
:100F8800DE50DE10D8B4CBEF07F0CDEF07F0E8EF76
:100F980007F020EE04F00550D9260650DA2210EEAC
:100FA80002F00550E1260650E222DE50E65CE650EB
:100FB800800A0B6EDE50800A0B58D8B0E6EF07F0B7
:100FC800E8EF07F0F1EF07F020EE02F00550D92620
:100FD8000650DA22DE2A000EDD2212000A680B68AB
:100FE80028EF08F001C0D9FF02C0DAFFDF50046E15
:100FF8000B5004180C6E014A022A0C380F0B0C1AFD
:101008000C50046E056A050ED89004360536E82E95
:1010180008EF08F00C50066E076A0C0ED8900636DA
:101028000736E82E12EF08F00A50096E086A0650D3
:10103800081A0750091A0450081A0550091A0C50C2
:1010480008180A6E09500B6E03060328D8A42FEF60
:1010580008F031EF08F0F6EF07F00AC001F00BC016
:1010680002F01200040E0001AB19D8B43EEF08F0EC
:1010780040EF08F048EF08F0D10EDB6F3E0EDC6F52
:1010880049EC0AF068EF08F00F0E85EC0AF0010E43
:1010980085EC0AF0000E85EC0AF0240E85EC0AF0C7
:1010A800610E85EC0AF0920E0001DB6F3E0EDC6FDC
:1010B80049EC0AF0B40E0001DB6F3E0EDC6F49EC20
:1010C8000AF0EE0E85EC0AF012005AC05EF05BC022
:1010D8005FF0000E0001B16F000EB06F87EF08F0EF
:1010E80058C045F059C046F05E0E476E000E486E77
:1010F8005CC049F05DC04AF0F6EC03F045500001D1
:10110800B0274650B1235EC0F6FF5FC0F7FF080066
:10111800F5500009D8A493EF08F095EF08F074EFA4
:1011280008F0B0C058F0B1C059F012009F0E096E17
:10113800FF0E0A6E07C00BF008C00CF009500B2612
:101148000A500C220C500AE11A0E0B5CD8A0AFEF23
:1011580008F0B2EF08F0010EB3EF08F0000E0D6EC4
:101168000E6A0D500E10D8B4BCEF08F0BEEF08F0B0
:10117800C4EF08F05F0E0714076E086AC8EF08F09E
:1011880007C007F008C008F01200000E836E000EBA
:10119800846E000E856E7F0E886E8968BF0E8A6E1B
:1011A8007F0E0F01216F1969FE0E116F000E2D6F52
:1011B800000E186F000E106F000E206F000E0F6FDC
:1011C800000E176F000E1F6F0E6916691E690D69F4
:1011D80015691D69080E2A6F170E0E01B56F090EE5
:1011E800FD6F120000000000000000BC09000000B4
:1011F80000000000000000000000000000000000E7
:1012080000000000000000000000000000000000D6
:1012180000000000000000000000000000000000C6
:1012280000000000000000000000000000000000B6
:10123800F2500250030B7F6E01C07EFF03C080FF97
:101248003F0E81168184000EF2BE010E046EF29EDE
:10125800550E826EAA0E826E818281B236EF09F037
:1012680038EF09F031EF09F08194819C818E04B048
:1012780002D0F29E01D0F28E1200818E819CEC0E7B
:10128800F66E110EF76E000EF86E00EE60F010EEBE
:101298004CF00900F5CFEEFFE550E150FAE101EE20
:1012A80000F08A0EEE6AE806FDE100EEACF02F0EC3
:1012B800EE6AE806FDE1000EF86E0001A0EF05F009
:1012C800000E126E000E116E75EF09F010C003F0DB
:1012D800046A0EC005F00FC006F0A7EC07F0114A2B
:1012E800122A11500C24D96E12500D20DA6EDF50DC
:1012F800106E1050D8A483EF09F085EF09F06AEF5B
:1013080009F01200080E9F6E900E9D6E240E9E6EC0
:10131800CF0E9B6E000E9C6E000E016E000E026ECC
:101328009FEC0AF0000E016E000E026E9AEC0AF0B5
:10133800000E016E000E026EA4EC0AF0000E000111
:10134800BA6F12009F0E036EFF0E046E200E01107E
:10135800056E000E0210066E035005260450062284
:1013680006500AE11A0E055CD8A0BDEF09F0C0EFDF
:1013780009F0010EC1EF09F0000E016E026A1200B9
:101388009F0E036EFF0E046E01C005F002C006F04A
:10139800035005260450062206500AE11A0E055C81
:1013A800D8A0D9EF09F0DCEF09F0010EDDEF09F064
:1013B800000E016E026A1200BF0E036EFF0E046E6D
:1013C80001C005F002C006F00350052604500622AD
:1013D80006500AE11A0E055CD8A0F5EF09F0F8EFFF
:1013E80009F0010EF9EF09F0000E016E026A120011
:1013F800000EF2BE010E056E03C0F8FF02C0F7FF33
:1014080001C0F6FF81503F0B8009816E818481887D
:10141800F29E550E826EAA0E826E818205B002D0AF
:10142800F29E01D0F28E120001C003F002C004F057
:1014380020EF0AF0014A022A01C0D9FF02C0DAFFF0
:10144800DF50D8A42AEF0AF02CEF0AF01EEF0AF0BA
:101458000350015C016E04500258026E12000E0126
:10146800CDAB39EF0AF03BEF0AF033EF0AF0000E8C
:101478000001BA6F9DA243EF0AF045EF0AF047EF6B
:101488000AF09D989D8899501200DD0E0001E16FC9
:10149800000EE26F000E586E000E596EDBC05AF057
:1014A800DCC05BF0E10E5C6E000E5D6E69EC08F06E
:1014B8001200000E0E01E16F000EE26F000EE36FE6
:1014C800000EE46F000EE56F000EE66F120002508A
:1014D800030B7F6E01C07EFF3F0E8116818000F0F6
:1014E80000F0819C818E80501200620E0E01D86F30
:1014F800000EDA6F000EDC6F060EDE6F000EDD6F79
:101508001200016E0E01CDA98CEF0AF08EEF0AF0E1
:1015180086EF0AF001C09AFF12005DEC0AF0C9ECF0
:1015280008F079EC0AF086EC09F0120001C08CF1A1
:1015380002C08DF1120001C0FDF002C0FEF01200E1
:1015480001C08AF102C08BF11200026E025085ECD4
:041558000AF0120083
:103E7400007375636365737366756C6C7920657222
:103E84006173656420666C617368656420200D0A43
:103E940000494E206120736574757020626F6F74E1
:103EA4006C6F61646572206D6F646520200D0A007B
:103EB40076657273696F6E207265616420737563D1
:103EC4006365737366756C6C79200D0A00666169AD
:103ED4006C656420746F207265616420766572730A
:103EE400696F6E200D0A006661696C656420746FE9
:103EF40020657261736520666C617368200D0A0029
:103F04006170706C69636174696F6E2072756E6E36
:103F1400696E672E2E2E0D0A0063616C63756C61E9
:103F2400746520637263203D2030782558200D0A83
:103F340000494E206120626F6F746C6F616465721A
:103F4400206D6F6465200D0A0077726974652073B3
:103F540075636365737366756C6C79200D0A00650F
:103F64006E64206F662066696C65206572726F727C
:103F7400200D0A00637263206E6F74207665726987
:103F840066696564200D0A0052656164696E672084
:103F9400666C6173682E2E2E2E0072656164206338
:103FA4006F6D706C657465200D0A006164647265E0
:103FB4007373206572726F72200D0A00637263203E
:103FC4007665726966696564200D0A0077726974A2
:103FD40065206661696C6564200D0A006D61726B11
:103FE4006572206572726F72200D0A0077726974AF
:0C3FF400696E672E2E2E2E2E2E2E000041
:020000040020DA
:10000000FF0FFF0FFF0FFF0FFF0FFF0FFF0FFF0F80
:020000040030CA
:0C000000ECFFFFFF9FFFFFFFFFFFFFFF73
:00000001FF
